:020000040800F2
:10000000680E0020D51C0008ED0B0008EF0B00085F
:10001000F30B0008F70B0008FB0B000800000000C2
:10002000000000000000000000000000FF0B0008BE
:10003000010C000800000000030C0008050C00087B
:10004000EF1C0008EF1C0008EF1C0008EF1C000864
:10005000EF1C0008EF1C0008EF1C000861130008EB
:10006000EF1C0008EF1C0008EF1C0008EF1C000844
:10007000EF1C0008EF1C0008EF1C0008EF1C000834
:10008000EF1C0008EF1C0008EF1C0008EF1C000824
:10009000EF1C0008EF1C0008EF1C0008EF1C000814
:1000A000EF1C0008EF1C0008EF1C0008EF1C000804
:1000B000910A0008E5140008EF1C0008EF1C000876
:1000C000EF1C0008EF1C0008EF1C0008EF1C0008E4
:1000D000EF1C0008A5080008DF090008EF1C000855
:1000E000EF1C0008EF1C0008EF1C0008EF1C0008C4
:1000F000EF1C0008EF1C0008EF1C0008EF1C0008B4
:10010000EF1C0008EF1C0008EF1C0008EF1C0008A3
:10011000EF1C0008EF1C0008EF1C0008EF1C000893
:10012000EF1C0008EF1C0008EF1C0008EF1C000883
:1001300000F002F800F06DF80AA090E8000C82448C
:100140008344AAF10107DA4501D100F062F8AFF269
:10015000090EBAE80F0013F0010F18BFFB1A43F0A5
:1001600001031847385C0000585C00000A444FF057
:10017000000C10F8013B13F0070408BF10F8014B06
:100180001D1108BF10F8015B641E05D010F8016B4B
:10019000641E01F8016BF9D113F0080F1EBF10F8AF
:1001A000014BAD1C0C1B09D16D1E58BF01F801CBD2
:1001B000FAD505E014F8016B01F8016B6D1EF9D555
:1001C0009142D6D37047000000230024002500266A
:1001D000103A28BF78C1FBD8520728BF30C148BFAA
:1001E0000B607047662905F01E81642903F06C835B
:1001F000632903F0BE86002070471FB503F0D8FEC8
:1002000004000020002104F015FCE0601FBD10B5C3
:1002100010BD03F0CDFF1146FFF7EFFF00F042F9EC
:1002200003F0EBFF03B4FFF7F2FF03BC01F0CAFCDD
:1002300001460846CA1701EB12721211F74B9A5C7D
:10024000F74B1A70CA1701EB12721211A1EB0212CE
:10025000F24B9A5CF24B5A7018467047F0B5024662
:100260000B460021002418E0505CC51700EB157503
:100270002D11EA4E775D2546641CEA4E7755505C99
:10028000C51700EB15752D11A0EB0515E34E775D35
:100290002546641CE34E7755491C9942E4DBE1484E
:1002A000F0BD0246002002E000231354401C8842A7
:1002B000FADB704710B50446DBA20221002001F0F2
:1002C0003EFB22460221002001F039FB10BD38B56B
:1002D00000240020009000BF1AE0002240F22551C7
:1002E000D54802F072F900BF2021D34802F03CFA51
:1002F0000028F9D0D04802F0CDF9C0B20DF80400C2
:10030000012240F22551CC4802F05FF9601CC4B2D2
:10031000042CE2DB00240AE01DF80400C749095D53
:10032000884202D0C6A0FFF7C5FF601CC4B2042CEF
:10033000F2DB02D1C5A0FFF7BDFF012038BD70B5CB
:1003400004460D46C4A0FFF7B5FFC5A003F072FA3E
:100350004FF4FA7001F009FC2946204601F0A0FC98
:10036000642001F002FC1A21C1A003F063FAFFF738
:10037000AEFF70BD10B50446ABA20421002001F011
:10038000DEFA22460421002001F0D9FA10BD10B592
:100390000446A5A20621002001F0D1FA224606213A
:1003A000002001F0CCFA10BD10B54FF49674B2A045
:1003B000FFF780FFB0A0FFF7EAFFB2A003F03AFA20
:1003C000204601F0D2FBB1A003F034FAB3A0FFF74E
:1003D000D1FF204601F0C9FBB4A003F02BFAB7A06F
:1003E000FFF7C8FF204601F0C0FBB8A003F022FAD7
:1003F000BBA0FFF7BFFF204601F0B7FBBBA003F097
:1004000019FAC1A0FFF7B6FF204601F0AEFBC1A06C
:1004100003F010FAC3A0FFF7ADFF204601F0A5FBE3
:10042000C3A003F007FAC8A0FFF7A4FF204601F01D
:100430009CFBC8A003F0FEF9CDA0FFF79BFF204670
:1004400001F093FBCDA003F0F5F90120D849087025
:10045000D8A0FFF78FFF204601F087FB10BD10B535
:10046000002000F0F1FC0446012C04D0022C05D041
:10047000032C11D10BE0FFF797FF11E0D048007873
:1004800008B9012000E00020CD49087008E00621ED
:10049000CC48FFF754FF03E00A2001F066FB00BFE1
:1004A00000BF10BD1CB501F023FB4FF4A06002F0AB
:1004B000B5F94FF4165001F094FB4FF4165001F0CB
:1004C0006FF800F091FC00F0ABFC41F61F41632097
:1004D00000F037FD00F066FD00F0C4FE01F073F996
:1004E000B9490878FFF7A4FE4D480078B74908706D
:1004F0004B4840784870B4494878FFF799FE48481F
:100500000078B249887046484078C8700846C0787C
:100510008978CDE90010AD4843780278ACA103F0AA
:1005200095F9AA4A0021084601F009FA0020AC49D1
:1005300008600221AB4801F0B3FB0221A94801F099
:1005400090F8FFF731FF06E0FFF789FF9C4800783D
:10055000A349091D0860F7E70246002100BF08E033
:10056000505CA14B5B5C984201D000207047481C56
:10057000C1B21029F4DB0120F8E70246002100BFD8
:1005800008E0505C994B5B5C984201D000207047BA
:10059000481CC1B21029F4DB0120F8E710B594A083
:1005A000FFF788FE2EA003F045F94FF4FA7001F032
:1005B000DCFA92A003F03EF98348427801781A23CE
:1005C00090A003F037F910BD10B5044622A0FFF744
:1005D00071FE23A003F02EF94FF4FA7001F0C5FA72
:1005E000204603F027F91A2121A003F023F9FFF791
:1005F0006EFE10BD10B518A0FFF75CFE18A003F04A
:1006000019F94FF4FA7001F0B0FA10BD10B51A21C3
:1006100017A003F00FF9FFF75AFE10BD06000020E7
:1006200016000020800700202020202020202020ED
:10063000202020202020000000380140570000200A
:1006400073656E64206661696C65640073656E64D1
:10065000206F6B202020200073656E64696E670038
:1006600041542B43495053454E440D0A00000000AD
:1006700025630D0A000000002020202020202020DB
:1006800020000000415445300D0A000041542B4326
:100690004950434C4F53453D310D0A00636C6F7315
:1006A00065312020202020202020200041542B4391
:1006B0004950534855540D0A00000000636C6F7395
:1006C00065322020202020202020200041542B4370
:1006D00047434C4153533D2242220D0A0000000083
:1006E00031202020202020202020000041542B43B6
:1006F0004744434F4E543D312C224950222C224333
:100700004D4E4554220D0A0032202020202020206A
:100710002020000041542B43474154543D310D0AE1
:100720000000000033202020202020202020000076
:1007300041542B434950435347503D312C22434DA4
:100740004E4554220D0A0000342020202020202075
:100750002020000041542B434C504F52543D225412
:100760004350222C2232303030220D0A000000008B
:1007700035202020202020202020000041542B4321
:10078000495053544152543D22544350222C22315B
:1007900035626D3332363534302E35316D797063D4
:1007A0002E636E222C223230303035220D0A0000AA
:1007B0002F00002036202020202020202020000094
:1007C00028000020850000200000002002000020FA
:1007D0007061726B3A256325632563256300000011
:1007E000B48121421800002033000020470000207F
:1007F000726567697374202020202000757365720C
:1008000049642D002563256325630D0A000000005F
:1008100010B54FF49674B4A003F00CF8204601F024
:10082000A4F9B4A003F006F8204601F09EF9B7A0A1
:1008300003F000F8204601F098F9ABA002F0FAFFAF
:10084000204601F092F9B6A002F0F4FF204601F034
:100850008CF9C24802F0EEFF204601F086F91A2119
:10086000BFA002F0E7FF204601F07FF910BD7047FE
:1008700010B54FF47A74AFF2EC1002F0DBFFAFF278
:10088000E410FFF777FD204601F06FF9AFF2E410B6
:1008900002F0D0FFAFF2DC10FFF76CFD204601F054
:1008A00064F910BD70B540F22551AE4801F072FFF9
:1008B000002879D0AB4801F0EDFEC4B2AA48007818
:1008C00001282BD1A94801780078401CA74A107054
:1008D000A74844541046007810281FD1A448FFF7B9
:1008E0003BFE012804D0A248FFF747FE012808D1AB
:1008F000A0A0FFF74CFD0120A1490870FFF74EFEB4
:1009000007E0A0A0FFF743FD00209D490870FFF716
:1009100045FE002094490870944908709C4800786E
:10092000012855D1542C15D1012506E09948415D87
:10093000A81C994A1154681CC5B20B2DF6DB0D2179
:100940009548FFF7FCFC95A0FFF714FD00209049A7
:10095000087070BD944801780078401C924A10706D
:100960009248445410460078042830D104218F481E
:1009700000F077FE8D48C078522805D101208B49C0
:100980008978844A505408E08848C078512804D1B6
:100990000020864989787F4A505485480068401C69
:1009A00083490860084600E017E082A10268844895
:1009B00002F04CFF8248FFF7EAFC14218048FFF761
:1009C00070FC002072490870012077490870C0E768
:1009D0005A2C02D101206E49087000BFB9E710B54A
:1009E0002021784801F0C0FE01284FD1754801F060
:1009F00051FEC4B25A2C03D101207349087010BDB6
:100A000071480078012841D1674801780078401C7E
:100A1000654A10706548445410460078042834D163
:100A2000624840786949C8706048807808715F48BA
:100A3000C078487106216548FFF781FC4FF4FA70D1
:100A400001F093F862480078012801D1FFF7E0FE39
:100A50000020564989784F4A50545E480068401C2F
:100A60005C49086008465CA10268554802F0EEFE49
:100A70005348FFF77FFC14215148FFF712FC002078
:100A800051490870012048490870B8E700BFB6E72F
:100A900010B50121880702F028FE20B30121880744
:100AA00002F034FE4E480068401C4D49086008467C
:100AB00000683221B0FBF1F201FB120038B949485D
:100AC000006808B9012000E0002046490860444859
:100AD000006841F27071B0FBF1F201FB120010B935
:100AE00041A0FFF771FD10BD41542B434D47463DDA
:100AF000310D0A0041542B43534D503D31372C31B9
:100B000036372C322C32350D0A00000041542B436D
:100B10005343533D2255435332220D0A0000000037
:100B200041542B434D47533D223030333130303325
:100B30003730303337303033323030333930303390
:100B40003830303334303033393030333330303381
:100B50003730303332220D0A00000000D85C000824
:100B600025630000003801402F0000205B000020BA
:100B7000A8070020636F6E206F6B2020200000000C
:100B800030000020636F6E206661696C0000000019
:100B900098000020DA0700205D00002067657420BF
:100BA0007374617465202000840000207B000020A5
:100BB00080000020636D643A25642020000000005E
:100BC000C607002000440040A0000020850000204F
:100BD000280000209C00002066623A256420200046
:100BE0008C000020BC81214230300000704700BFE3
:100BF000FEE700BFFEE700BFFEE700BFFEE770476D
:100C000070477047704700000CB5002001900090BD
:100C10006C48006840F480306A49086000BF694849
:100C2000006800F4003000900198401C019000988A
:100C300018B90198B0F5A06FF1D16248006800F4CE
:100C4000003010B10120009001E0002000900098D9
:100C5000012843D15C48006840F010005A49086000
:100C60000846006820F0030008600846006840F06D
:100C7000020008605348406852494860084640688E
:100C800048600846406840F4806048600846406814
:100C900020F47C1048600846406840F4E810486042
:100CA0000846006840F08070086000BF4548006852
:100CB00000F000700028F9D04248406820F003009E
:100CC000404948600846406840F00200486000BF64
:100CD0003C48406800F00C000828F9D10CBD10B564
:100CE000FFF792FF10BD10B53648006840F00100D4
:100CF0003449086008464068344908403149486032
:100D000008460068324908402E49086008460068D5
:100D100020F4802008600846406820F4FE00486007
:100D20004FF41F008860FFF7DAFF4FF00060294999
:100D3000086010BD10B5002100200022214B5B6827
:100D400003F00C0121B1042906D0082928D107E0BD
:100D5000214B224C236027E01F4B204C236023E0D3
:100D6000184B5B6803F47010164B5B6803F4803219
:100D7000022303EB904022B9194B4343174C2360E5
:100D80000DE0104B5B6803F4003323B1144B434375
:100D9000124C236003E0104B4343104C236003E0EC
:100DA0000D4B0E4C236000BF00BF064B5B68C3F3C6
:100DB00003130C4CE15C094B1B68CB40074C2360D0
:100DC00010BD000000100240002002400000FFF8AB
:100DD000FFFFF6FE08ED00E000127A00A4000020FC
:100DE00000093D00A800002008B50121082001F0FD
:100DF000ADFA4FF46040ADF8000010208DF803000C
:100E000003208DF802006946044800F0E3FF4FF428
:100E10000041024801F08BF808BD0000000C0140C1
:100E200008B50121102001F091FA01212B4801F0B1
:100E3000A2F80720ADF8000048208DF803006946AD
:100E4000274800F0C7FF08BD10B5044614B10120C3
:100E5000244908702348007848B30121204801F054
:100E60004CF848B102211E4801F047F820B1042196
:100E70001B4801F042F8D0B90A2000F076FE0020AD
:100E8000184908700121164801F037F808B9012007
:100E900010BD0221124801F030F808B90220F7E72E
:100EA00004210F4801F029F8A8B90320F0E7012137
:100EB0000B4801F022F801280DD10221084801F069
:100EC0001CF8012807D10421054801F016F8012873
:100ED00001D1044908700020DAE700000002300068
:100EE00000100140B80000207FB505460C460121E6
:100EF000022001F038FAADF80850ADF804400020A7
:100F0000ADF80A00ADF8060001A9254801F0C8FDBA
:100F100001221146224802F03AF91D208DF8000006
:100F200000208DF8010003208DF8020001208DF8CB
:100F30000300684601F077FC0021194802F00CF923
:100F40007FBD7FB505460C460121084601F00BFA2E
:100F5000ADF80850ADF804400020ADF80A00ADF837
:100F6000060001A94FF0804001F09AFD01221146D0
:100F7000900702F00CF91C208DF8000000208DF87D
:100F8000010003208DF8020001208DF8030068465F
:100F900001F049FC0121880702F0DEF87FBD000066
:100FA0000004004008B50121102001F0CFF94FF4F2
:100FB0007070ADF8000010208DF8030003208DF84C
:100FC00002006946A14800F005FF4FF400719F48F8
:100FD00000F0AFFF40219D4800F0ABFF80219B480F
:100FE00000F0A7FF4FF48071984800F0A2FF08BD01
:100FF00010B500209649086001209649C1F8A40167
:101000009548006800F08DFD012091490C31086081
:101010009049C1F8A0019048006800F082FD0020CE
:101020008B490C31086001208A49C1F8A0018A4827
:10103000006800F076FD0120854908310860854987
:10104000C1F89C018448006800F06BFD00208049D5
:101050000831086001207F49C1F89C017E48006882
:1010600000F05FFD01207A49091D08607949C1F847
:1010700098017948006800F054FD00207449091D6A
:10108000086001207349C1F898017348006800F0B6
:1010900048FD01206E4908606E49C1F8A4016E4800
:1010A000006800F03EFD10BD2DE9F05F0446894662
:1010B000484603F0BCFE0746684A694B03F0E2FE6F
:1010C000054603F057FE83464FF0000AB8E0012CB6
:1010D0005AD100205E49086001205E49C1F8A40190
:1010E0005D48006800F01DFD012059490C31086081
:1010F0005849C1F8A0015848006800F012FD0020CE
:1011000053490C31086001205249C1F8A0015248EE
:10111000006800F006FD01204D49083108604D4986
:10112000C1F89C014C48006800F0FBFC00204849D5
:101130000831086001204749C1F89C014648006811
:1011400000F0EFFC01204249091D08604149C1F847
:1011500098014148006800F0E4FC00203C49091D6A
:10116000086001203B49C1F898013B48006800F045
:10117000D8FC0120364908603649C1F8A401364838
:10118000006800F0CEFC59E0012031490860314987
:10119000C1F8A4013048006800F0C3FC00202C49CD
:1011A0000C31086001202B49C1F898012A480068D9
:1011B00000F0B7FC01202649091D08602549C1F847
:1011C00098012548006800F0ACFC00202049086028
:1011D00001202049C1F89C011F48006800F0A1FCD3
:1011E00001201B49091D08601A49C1F8A0011A48CD
:1011F000006800F096FC00201549091D08600120D8
:101200001449C1F8A0011448006800F08AFC0120CC
:101210000F490C3108600F49C1F8A0010E48006861
:1012200000F07FFC00200A490831086001200949CC
:10123000C1F8A4010848006800F073FC0AF1010A33
:10124000DA45FFF644AFBDE8F09F00000010014012
:101250009801224200002242BC000020176CC116F7
:101260006CC1F63F1FB50121082001F06FF8012085
:10127000ADF80C0010208DF80F0003208DF80E0043
:1012800003A9A54800F0A6FD0121A34800F051FEE6
:101290000220ADF80C0028208DF80F0003A99E480D
:1012A00000F098FD0121084601F050F801210846A0
:1012B00000F0A6FE0220019000208DF8080010200A
:1012C0008DF8090001208DF80A0001A802F030FA1B
:1012D00007208DF8000002208DF801008DF8020033
:1012E00001208DF80300684601F09DFA47214FF672
:1012F000FF70FFF7F9FD1FBD2DE9F14F84B0049891
:1013000003F0ACFD80460022844B03F0DBFB00229F
:10131000834BCDE9000103F0B5FD06460022814B69
:1013200003F0B0FD044600224FF0804303F0CAFBF7
:10133000824603F04FFD80B20290029805B0BDE8EE
:10134000F08F10B50120784908602D2000F0E9FBEE
:1013500000207649C1F8800101207549086010BD60
:101360002DE9F04102216C4800F0C7FD01280ED1A3
:101370006F48006801280AD100206E4908800121C9
:101380006C48243801F0E8FE022069490860022117
:10139000614800F0B2FD002874D165480068022859
:1013A000FAD16448008864490880002060490860D8
:1013B00000216048243801F0CFFE60480068401CDE
:1013C0005E4908605C480088FFF796FF054603F019
:1013D000F1FE04465A480168204603F07DFE584954
:1013E0000860564800680A2877D1002053490860F1
:1013F0005348006803F044FE06460022514B03F0B8
:1014000061FB044603F02CFB4F49086000204C4967
:1014100008604D48006803F033FE06460022494B41
:1014200003F050FB044622460B4648A14B4802F00D
:101430000DFA4A4A0221002000F081FA484800686B
:10144000012820D147480068E8B947493E4800686C
:1014500003F0C4FE17D245480068401C43490860A9
:1014600008460068032838D10020086001203D4963
:1014700008603FA1394802F0E9F9384A022100200A
:1014800000F05DFA29E036480068012825D135488A
:101490000068012821D13A492B48006803F01DFF5C
:1014A0001BD238480068401C36490860084600686E
:1014B000032812D1002008602A49086028490860E2
:1014C00031A1264802F0C2F9244A0221002000F08E
:1014D00036FA5A210020FFF7E7FD022002F09FF9BB
:1014E000BDE8F08110B501211248243802F0FDF862
:1014F00080B101210F48243802F008F900200C497E
:10150000086024A2022100F01AFA002109482438B8
:1015100001F022FE10BD0000000C014080842E412D
:101520000040754000408F40808121420080214270
:10153000C000002024040040C4000020CC00002093
:10154000D000002000002440D40000206469733AD9
:1015500020252E316620636D00000000E507002085
:1015600024000020C800002000007A44DC00002095
:10157000612063617220636F6D6520696E000000F9
:101580000080BB44D80000206120636172206C653C
:10159000617665006469733A756E6B6F776E0000F3
:1015A00010B586B004460121042000F0CFFE0121D1
:1015B000480400F0D8FE0820ADF8140004208DF88F
:1015C000170005A9314800F005FC0420ADF814000F
:1015D00003208DF8160018208DF8170005A92B4858
:1015E00000F0F8FB26208DF8100003208DF8110084
:1015F00002208DF8120001208DF8130004A801F0DC
:1016000012F900940020ADF80400ADF80600ADF822
:101610000800ADF80C000C20ADF80A0069461C4823
:1016200000F03BFF012240F22551194800F0CDFFA8
:101630000121174800F0BDFF06B010BD10B50446EB
:101640000BE02178124801F021F800BF402110483A
:1016500001F08AF80128F9D1641C20780028F0D123
:1016600010BD70B505460E46002400BF0BE0295D95
:10167000074801F00BF800BF4021054801F074F85D
:101680000128F9D1641CB442F1DB70BD00080140AF
:101690000044004010B50446A0B200F066FA10BD48
:1016A00010B50446A0B200F060FA10BD10B50821D4
:1016B00000220123FE4C2360002114E00023FD4C96
:1016C000236000F080021AB9F94C0834236003E06B
:1016D0000123F74C083423600123F64C23604306B2
:1016E000180E4B1CD9B20829E8DB10BD10B5082133
:1016F00000220023EE4C2360002114E00023ED4C77
:10170000236000F080021AB9E94C0834236003E03A
:101710000123E74C083423600123E64C2360430691
:10172000180E4B1CD9B20829E8DB10BD30B50446B1
:101730000D4605F1B001C8B2FFF7D8FF102141EA0C
:101740001410FFF7D3FF04F00F0141F00100FFF781
:10175000CDFF30BD70B50646002415E004F1B001A0
:10176000C8B2FFF7C3FF0120FFF7C0FF1020FFF74B
:10177000BDFF002504E03046FFF798FF681CC5B2A6
:10178000802DF8DB601CC4B2082CE7DB70BD30B5DF
:10179000002415E004F1B001C8B2FFF7A7FF012053
:1017A000FFF7A4FF1020FFF7A1FF002504E00020B1
:1017B000FFF77CFF681CC5B2802DF8DB601CC4B24B
:1017C000082CE7DB30BD08B50121302000F0BEFD5C
:1017D0004FF4E050ADF8000010208DF80300032016
:1017E0008DF802006946B44800F0F4FA0420ADF820
:1017F000000010208DF8030003208DF802006946D8
:10180000AE4800F0E7FA0120AA4908600020AC4980
:10181000C1F8AC016420FFF743FF0120A449091D72
:101820000860AE20FFF762FF0020FFF75FFF102087
:10183000FFF75CFF4020FFF759FF8120FFF756FFBD
:10184000CF20FFF753FFA120FFF750FFC820FFF77D
:101850004DFFA620FFF74AFFA820FFF747FF3F20D4
:10186000FFF744FFD320FFF741FF0020FFF73EFFC3
:10187000D520FFF73BFF8020FFF738FFD920FFF787
:1018800035FFF120FFF732FFDA20FFF72FFF12209C
:10189000FFF72CFFDB20FFF729FF4020FFF726FF93
:1018A0002020FFF723FF0220FFF720FF8D20FFF706
:1018B0001DFF1420FFF71AFFA420FFF717FFA62033
:1018C000FFF714FFAF20FFF711FFFF20FFF742FFE4
:1018D00000210846FFF72AFFFFF759FF08BD2DE951
:1018E000F0430446884615464FF0000900260027BD
:1018F00020E0E85D203800F0FF097E2C04DD0024A4
:1019000008F1010000F0FF0841462046FFF70EFFF6
:10191000002609E009EB49016A4A02EB4101885DB2
:10192000FFF7C4FE701CC6B2062EF3DBA01DC4B2C6
:10193000781CC7B2E85D0028DBD1BDE8F0832DE953
:10194000F04306460F46904600250024A14631E0AC
:1019500018F809002038C5B2782E02DD0026781C60
:10196000C7B239463046FFF7E1FE002407E004EB3A
:101970000511554A505CFFF799FE601CC4B2082C53
:10198000F5DB781CC1B23046FFF7D0FE002408E03A
:1019900004EB051108314C4A505CFFF787FE601CD0
:1019A000C4B2082CF4DB06F10800C6B209F101004C
:1019B00000F0FF0918F809000028C9D1BDE8F0833C
:1019C0002DE9F04180460E46174600247D01314640
:1019D0004046FFF7ABFE00BF06E03C49485DFFF71D
:1019E00065FE6D1C601CC4B2102CF6DB701CC1B20D
:1019F0004046FFF79BFE002406E03449485DFFF7B0
:101A000055FE6D1C601CC4B2102CF6DBBDE8F081E5
:101A10002DE9F04F06460F4690461C46DDF824A0FF
:101A20004FF0000BE11704EB5171C910A4EBC10199
:101A300031B92046E11704EB5171C1F3C70506E047
:101A40002046E11704EB5171C910491CCDB23D4647
:101A500014E029463046FFF769FEB1460AE05946D0
:101A60000BF1010B1AF80100FFF720FE09F101004C
:101A700000F0FF09C145F2DB681CC5B2A542E8DBF6
:101A8000BDE8F08F10B5002411A200210846FFF731
:101A900056FF0FA202210020FFF751FF0FA20421E1
:101AA0000020FFF74CFF0DA2062100201CE00000E3
:101AB000A801224288812242001001400014014006
:101AC000000022422A54000852560008E00000207C
:101AD0006920616D206C6364000000003230313693
:101AE0002D31302D30310000FFF729FF10BD0000EF
:101AF00010B56FF0040000F0E0FE2E4800682E499B
:101B0000B0FBF1F02D4908700846007800EB400169
:101B1000C1EBC0104FF6FF7101EAC00028490880F0
:101B200010BD0146254A12784A434FF0E0235A611E
:101B300000229A611A46126942F001021A6100BF3E
:101B40004FF0E022106900F001021AB100F4803277
:101B5000002AF5D04FF0E022126922F001024FF086
:101B6000E0231A6100229A6170470146144A1288E4
:101B70004A434FF0E0235A6100229A611A461269E3
:101B800042F001021A6100BF4FF0E022106900F03C
:101B900001021AB100F48032002AF5D04FF0E022A1
:101BA000126922F001024FF0E0231A6100229A61CB
:101BB00070470000A400002000127A006007002097
:101BC00062070020014600BF704700BF3F4A1288ED
:101BD00002F04002002AF9D0C2B23C4B1B1D1A8011
:101BE000704710B586B00446012144F2040000F0AD
:101BF000ADFB4FF40070ADF8140003208DF8160013
:101C000018208DF8170005A9314800F0E3F84FF4CB
:101C10008060ADF8140004208DF8170005A92C4849
:101C200000F0D8F825208DF8000003208DF8010081
:101C30008DF8020001208DF80300684600F0F3FDE6
:101C400001940020ADF80800ADF80A00ADF80C00D2
:101C5000ADF810000C20ADF80E0001A91B4800F0F3
:101C60001CFC012240F22551184800F0AEFC012175
:101C7000164800F09EFC06B010BD10B504460BE0FF
:101C80002178124800F002FD00BF40210F4800F00B
:101C90006BFD0128F9D1641C20780028F0D110BD1B
:101CA00070B505460E46002400BF0BE0295D0748CD
:101CB00000F0ECFC00BF4021044800F055FD012875
:101CC000F9D1641CB442F1DB70BD00000038014062
:101CD000000801400948804709480047FEE7FEE741
:101CE000FEE7FEE7FEE7FEE7FEE7FEE7FEE7FEE7CC
:101CF00004480549054A064B70470000E70C0008F8
:101D00003101000868080020680E0020680A0020E1
:101D1000680A002010B50446CC48844208D101214D
:101D2000042000F02DFB0021042000F029FB46E0F8
:101D3000C748844208D10121082000F021FB00217E
:101D4000082000F01DFB3AE0C248844208D101217E
:101D5000102000F015FB0021102000F011FB2EE0F8
:101D6000BD48844208D10121202000F009FB002158
:101D7000202000F005FB22E0B848844208D1012170
:101D8000402000F0FDFA0021402000F0F9FA16E0B2
:101D9000B348844208D10121802000F0F1FA0021EB
:101DA000802000F0EDFA0AE0AE48844207D101211C
:101DB000801500F0E5FA0021A01500F0E1FA10BD51
:101DC00010B50121084600F0DBFA0021012000F0E7
:101DD000D7FA10BD2DE9F04102460025002600206B
:101DE00000230024002791F803C00CF00F0591F8A0
:101DF00003C00CF0100CBCF1000F03D091F802C02E
:101E00004CEA050591F800C0BCF1000F31D0146810
:101E100000202BE04FF0010C0CFA00F3B1F800C0E9
:101E20000CEA03069E4220D183004FF00F0C0CFAFF
:101E300003F7BC4305FA03FC4CEA040491F803C021
:101E4000BCF1280F06D14FF0010C0CFA00FCC2F8CF
:101E500014C00AE091F803C0BCF1480F05D14FF05F
:101E6000010C0CFA00FCC2F810C0401C0828D1D3A9
:101E70001460B1F800C0BCF1FF0F34DD54680020DD
:101E80002EE000F1080C4FF0010808FA0CF3B1F84D
:101E900000C00CEA03069E4221D183004FF00F0CD4
:101EA0000CFA03F7BC4305FA03FC4CEA040491F86E
:101EB00003C0BCF1280F05D100F1080C08FA0CF89A
:101EC000C2F8148091F803C0BCF1480F07D100F1AB
:101ED000080C4FF0010808FA0CF8C2F81080401CFA
:101EE0000828CED35460BDE8F0814FF6FF71018021
:101EF000022181700421C17070470246002093685E
:101F00000B400BB1012000E00020704701468868BB
:101F100080B2704702460020D3680B400BB101200D
:101F200000E0002070470146C86880B27047016138
:101F30007047416170470AB1016100E0416170473B
:101F4000C16070474FF480320A43826181618261CF
:101F500082698269704702460020434B18684FF639
:101F60008073184040EA021008433F4B18607047E6
:101F70003E49C8617047F0B50A460023002400219D
:101F8000002500F00046B6F1004F02D1364EF1694F
:101F900001E0354E7168C0F3034583B200F440168A
:101FA000B6F5401F08D121F070612F4E766826F0FB
:101FB00070662D4F7E6012E000F48016B6F5801F2B
:101FC00006D1032606FA05F4A14341F0706106E04C
:101FD000460D360103FA06F6B14341F0706122B1B5
:101FE000460D360103FA06F6314300F00046B6F11D
:101FF000004F02D11C4EF16101E01B4E7160F0BD3B
:1020000030B500228B071C0F0F2303FA04F2164B86
:1020100008338C1053F824309343134C08348D103C
:1020200044F8253023468C1053F824308C07240FB5
:1020300000FA04F423430C4C08348D1044F8253086
:1020400030BD0A49DC3108607047000000080140DB
:10205000000C014000100140001401400018014034
:10206000001C01400020014000000140000020420F
:10207000DF48006840F00100DD490860084640681C
:10208000DC490840DA49486008460068DA490840F7
:10209000D74908600846006820F480200860084698
:1020A000406820F4FE0048604FF41F0088607047CD
:1020B000CF49096821F48031CD4A11601146096881
:1020C00021F480211160B0F5803F03D0B0F5802F5E
:1020D0000ED106E0C649096841F48031C44A116056
:1020E00007E0C349096841F4A021C14A116000E03A
:1020F00000BF00BF704710B501460022002300203A
:102100004A11012A02D1BA4C236806E0022A02D100
:10211000B74C236A01E0B64C636A01F01F02012448
:1021200094401C400CB1012000E0002010BD38B5E7
:10213000002000900024002500BF3120FFF7DBFFC6
:1021400005460098401C00900098B0F5A06F01D0A3
:10215000002DF2D03120FFF7CEFF08B1012400E0BE
:102160000024204638BD01460020A14A106820F016
:10217000F80040EAC10010607047A049086070474D
:10218000024600209A4B586820F47C1042EA010372
:102190001843974B58607047984908667047014646
:1021A0000020934A506820F00300084350607047B5
:1021B0008F48406800F00C007047014600208C4AB0
:1021C000506820F0F000084350607047014600203E
:1021D000874A506820F4E060084350607047014629
:1021E0000020834A506820F4605040EAC1005060EB
:1021F000704729B17E4A527A02437D4B5A7204E0FD
:102200007B4A527A82437A4B5A7270477B49D83163
:102210000860704701460020754A506820F440402D
:102220000843506070470021714A20321170704A93
:1022300082F82010012802D004280AD104E00121EC
:102240006B4A2032117005E00521694A2032117075
:1022500000E000BF00BF70476949086070476449EB
:10226000096A0143624A116270476549443908604E
:10227000704730B500210022002400235C4D6D68BA
:1022800005F00C0121B1042905D0082923D105E06E
:102290005C4D056022E05B4D05601FE0544D6D68AC
:1022A00005F47012524D6D6805F48034022505EB7B
:1022B00092421CB9544D554305600BE04C4D6D687E
:1022C00005F400351DB1504D5543056002E04D4DFC
:1022D0005543056002E04B4D056000BF00BF444D13
:1022E0006D6805F0F0010909484D6B5C0568DD403B
:1022F00045603F4D6D6805F4E061090A434D6B5C34
:102300004568DD4085603A4D6D6805F46051C90A45
:102310003E4D6B5C4568DD40C560354D6D6805F42C
:102320004041890B3A4D6B5CC568B5FBF3F505611F
:1023300030BD29B12E4A526902432D4B5A6104E047
:102340002B4A526982432A4B5A61704729B1284A65
:1023500092690243264B9A6104E0254A92698243BE
:10236000234B9A61704729B1214AD2690243204B1D
:10237000DA6104E01E4AD26982431D4BDA6170477C
:1023800029B11B4AD2680243194BDA6004E0184AAB
:10239000D2688243164BDA60704729B1144A126939
:1023A0000243134B1A6104E0114A12698243104B35
:1023B0001A61704712494039086070470F49C86474
:1023C00070470B49C87170470948406A40F08070F7
:1023D00007494862704701460020054A92680A4052
:1023E0000AB1012000E0002070470149887270475F
:1023F000001002400000FFF8FFFFF6FE000042421E
:102400008004424200127A0000093D006A07002061
:102410007A07002010B50446FB48844209D1012107
:102420008803FFF7ADFF00214FF48040FFF7A8FFBE
:1024300032E0F648844209D101214804FFF7ADFF9C
:1024400000214FF40030FFF7A8FF25E0F048844258
:1024500009D101218804FFF7A0FF00214FF480205B
:10246000FFF79BFF18E0EB48844209D10121C80423
:10247000FFF793FF00214FF40020FFF78EFF0BE0E2
:10248000E548844208D101210805FFF786FF0021B5
:102490004FF48010FFF781FF10BD2DE9F04786B0A3
:1024A00005460E460024A24600BFA1460027B0897B
:1024B00000B100BF2F462C8A4CF6FF700440F08814
:1024C00004432C82AC894EF6F3100440B088318965
:1024D0000843718908430443AC81AC8A4FF6FF403E
:1024E0000440B0890443AC8201A8FFF7C2FEC6488D
:1024F000874202D1DDF810A001E0DDF80CA0A88928
:1025000000F4004040B10AEBCA0000EB0A10316849
:102510004900B0FBF1F807E00AEBCA0000EB0A1033
:1025200031688900B0FBF1F86420B8FBF0F00401D9
:102530002009642101FB1089A88900F4004040B102
:10254000322000EBC900B0FBF1F000F007000443BB
:1025500008E0322000EB09106421B0FBF1F000F03C
:102560000F0004432C8106B0BDE8F0874FF41651EC
:10257000016000218180C18001810C214181002105
:102580008181704710B502460020108A4FF2FF0388
:1025900018400B884C8823438C882343CC882343E2
:1025A0001843108210BD0021018041808180C180CC
:1025B000704721B1828942F40052828104E082890D
:1025C0004DF6FF731A4082817047F0B50346002430
:1025D00000260025002040F66A17B94200D100BF4E
:1025E0001846C1F3421401F01F06012707FA06F549
:1025F000012C01D10C3004E0022C01D1103000E09C
:1026000014301AB107682F43076002E00768AF4330
:102610000760F0BD1AB1838A0B43838202E0838A8C
:102620008B4383827047028A4FF6F0731A4002820E
:10263000028A0A430282704782894FF2FF731A406E
:10264000828182890A438281704721B1828942F066
:102650000202828104E082894FF6FD731A40828172
:102660007047028A4FF6DF731A400282028A0A43D9
:102670000282704721B1028A42F48042028204E061
:10268000028A4BF6FF731A4002827047C1F30802B8
:102690008280704701468888C0F3080070478189AE
:1026A00041F0010181817047028BD2B20283028B1B
:1026B00042EA012202837047028B02F47F420283C6
:1026C000028B0A430283704721B1828A42F02002C2
:1026D000828204E0828A4FF6DF731A40828270475A
:1026E00021B1828A42F01002828204E0828A4FF68F
:1026F000EF731A408282704721B1828A42F0080249
:10270000828204E0828A4FF6F7731A408282704711
:1027100021B1828942F40042828103E08289C2F3BE
:102720000E028281704721B1828A42F40062828265
:1027300004E0828A4FF2FF731A4082827047828AD5
:102740004FF6FB731A408282828A0A438282704764
:1027500021B1828A42F00202828204E0828A4FF62C
:10276000FD731A408282704702460020B1F5007F57
:1027700000D100BF13880B400BB1012000E0002006
:10278000704701F40072B2F5007F00D100BFCA4368
:102790000280704770B50246002400230025002007
:1027A00040F66A16B14200D100BFC1F3421501F0F4
:1027B0001F03012606FA03F3012D02D19689334047
:1027C00006E0022D02D1168A334001E0968A33409A
:1027D0000C12012606FA04F41688344013B10CB129
:1027E000012000E0002070BD10B50022002340F65B
:1027F0006A14A14200D100BF0A1201249440A3B27E
:10280000DC43048010BD000000380140004400405B
:1028100000480040004C0040005000403149014356
:10282000314A1160704770B5002100230F22C4782F
:1028300004B32D4C246804F4E064C4F5E064210A78
:10284000C1F10403CA40447804FA03F184781440C7
:1028500021430901254C0678A155047804F01F0591
:102860000124AC4005786D11AD0005F1E025C5F8F7
:10287000004109E0047804F01F050124AC401C4D20
:102880000678761145F8264070BD1A4A0A40024380
:10289000154B1B1F1A60704739B1134A121D12687D
:1028A0000243114B1B1D1A6006E00F4A121D1268ED
:1028B00082430D4B1B1D1A607047042808D14FF04E
:1028C000E021096941F004014FF0E022116107E0C5
:1028D0004FF0E021096921F004014FF0E02211617D
:1028E000704700000000FA050CED00E000E400E095
:1028F00080E100E080FFFF1F10B50446FE488442DF
:1029000008D10121C014FFF73BFD0021E014FFF7BF
:1029100037FDC4E0B4F1804F08D101210846FFF72C
:102920003CFD00210120FFF738FDB8E0F348844268
:1029300008D101210220FFF730FD00210220FFF71E
:102940002CFDACE0EE48844208D101210420FFF7C1
:1029500024FD00210420FFF720FDA0E0E948844287
:1029600008D101210820FFF718FD00210820FFF7FA
:1029700014FD94E0E448844208D101211020FFF7BF
:102980000CFD00211020FFF708FD88E0DF4884429D
:1029900008D101212020FFF700FD00212020FFF7B2
:1029A000FCFC7CE0DA48844208D101214014FFF7A6
:1029B000E7FC00216014FFF7E3FC70E0D548844297
:1029C00009D10121C804FFF7DBFC00214FF40020EE
:1029D000FFF7D6FC63E0D048844209D10121080505
:1029E000FFF7CEFC00214FF48010FFF7C9FC56E042
:1029F000CA48844209D101214805FFF7C1FC0021E2
:102A00004FF40010FFF7BCFC49E0C548844208D1F0
:102A100001214020FFF7C1FC00214020FFF7BDFC51
:102A20003DE0C048844208D101218020FFF7B5FC79
:102A300000218020FFF7B1FC31E0BB48844208D17F
:102A400001218015FFF7A9FC0021A015FFF7A5FCC7
:102A500025E0B648844209D101210804FFF790FC23
:102A600000214FF48030FFF78BFC18E0B04884421F
:102A700009D101214804FFF783FC00214FF4003005
:102A8000FFF77EFC0BE0AB48844208D101218804AB
:102A9000FFF776FC00214FF48020FFF771FC10BD9A
:102AA00000220288944B98420ED0994B98420BD04A
:102AB000B0F1804F08D0914B984205D0904B98428E
:102AC00002D0904B984204D14FF68F731A404B8836
:102AD0001A438D4B984207D08C4B984204D04FF646
:102AE000FF431A40CB881A4302808B8883850B886A
:102AF0000385814B98420BD0854B984208D08B4B75
:102B0000984205D08A4B984202D08A4B984201D114
:102B10000B7A038601238382704770B5002400225C
:102B20000023058C4FF6FE7635400584028C8388A1
:102B3000048B4FF68F752C40B51E2C400D882C430E
:102B4000751E2A400D892A434D882A436A4DA842A2
:102B50000BD06F4DA84208D0744DA84205D0744DDB
:102B6000A84202D0734DA84213D14FF6F7752A4000
:102B70004D892A434FF6FB752A408D882A434FF62C
:102B8000FF652B404FF6FF552B408D892B43CD8998
:102B90002B4383800483CD888586028470BD70B505
:102BA000002400220023058C4FF6EF763540058483
:102BB000028C8388048B48F6FF752C404FF6FF4546
:102BC0002C400D884FF6FF7606EA05252C434FF67C
:102BD000DF752A400D8906EA05152A434D8806EA65
:102BE00005152A43444DA84202D0494DA8421DD1A3
:102BF0004FF67F752A404D894FF6FF7606EA051598
:102C00002A434FF6BF752A408D8806EA05152A43E8
:102C10004FF6FF352B404FF2FF752B408D8906EAAA
:102C200085052B43CD8906EA85052B4383800483E4
:102C3000CD880587028470BD70B500240022002372
:102C4000058C4FF6FF6635400584028C8388848BA3
:102C50004FF68F752C404FF6FC752C400D882C4399
:102C60004FF6FF552A400D894FF6FF7606EA0525F7
:102C70002A434D8806EA05252A431F4DA84202D063
:102C8000234DA8421DD14FF2FF752A404D894FF6C2
:102C9000FF7606EA05252A434FF6FF352A408D8840
:102CA00006EA05252A434EF6FF752B404DF6FF75C3
:102CB0002B408D8906EA05152B43CD8906EA0515BB
:102CC0002B4383808483CD888587028470BD70B553
:102CD000002200230024058C4EF6FF763540058443
:102CE000038C8488828B48F6FF752A404FF6FF4597
:102CF0002A400D8820E00000002C01400004004024
:102D000000080040000C004000100040001400408B
:102D100000340140004C014000500140005401408B
:102D200000180040001C004000200040004001400E
:102D300000440140004801404FF6FF7606EA0525B1
:102D40002A434DF6FF752B400D8906EA05352B43C6
:102D50004D8806EA05352B43FA4DA84202D0FA4DBC
:102D6000A84208D14BF6FF752C408D894FF6FF76AF
:102D700006EA85152C4384808283CD88A0F84050D4
:102D8000038470BD828B4FF2FF331A408283828BA3
:102D90004FF6FF7303EA01231A4382837047F0B5AD
:102DA0000C461546002200210026078C4EF6FF7CBB
:102DB00007EA0C070784828B018C4FF6FF7707EA3E
:102DC000043640F6FF473A404FF6FF7707EA0527FB
:102DD0003A434FF6FF7707EA03373A43D94FB842F1
:102DE0000ED0D94FB8420BD0B0F1804F08D0D74F9A
:102DF000B84205D0D64FB84202D0D64FB84206D11D
:102E00004DF6FF77394046F48057394305E047F6E1
:102E1000FF57394044F48057394382830184F0BD21
:102E2000828B4FF6F3731A408283828B0A4382832C
:102E30007047F0B50C461546002200210026078C8D
:102E40004FF6FF6C07EA0C070784828B018C4FF664
:102E5000FF7707EA04264FF60C773A404FF6FF77E4
:102E600007EA03172F433A43B64FB8420ED0B64F86
:102E7000B8420BD0B0F1804F08D0B44FB84205D063
:102E8000B34FB84202D0B34FB84206D14FF6FF5706
:102E9000394046F48077394305E04FF2FF57394017
:102EA00044F48077394382830184F0BD028B4FF272
:102EB000FF331A400283028B4FF6FF7303EA0123AC
:102EC0001A4302837047F0B50C46154600220021D4
:102ED0000026078C4FF6EF7C07EA0C070784028B6D
:102EE000018C4FF6FF7707EA041640F6FF473A4099
:102EF0004FF6FF7707EA03373A434FF6FF7707EAC3
:102F000005273A438F4FB8420ED08F4FB8420BD0AF
:102F1000B0F1804F08D08D4FB84205D08C4FB842E9
:102F200002D08C4FB84206D14FF6DF77394046F0D9
:102F30001007394305E04FF65F77394044F010073A
:102F4000394302830184F0BD028B4FF6F3731A40BC
:102F50000283028B0A4302837047F0B50C46154684
:102F600000220021068C4FF6FE773E400684028B3D
:102F7000018C4FF60C7632407E1C06EA03162E4377
:102F80003243704EB0420ED06F4EB0420BD0B0F113
:102F9000804F08D06D4EB04205D06D4EB04202D089
:102FA0006C4EB04206D14FF6FD76314044F001063A
:102FB000314305E04FF6F576314044F001063143E8
:102FC00002830184F0BD70B505460C465D4885421C
:102FD0000ED05D4885420BD0B5F1804F08D05B48DC
:102FE000854205D05A48854202D05A48854200D1D0
:102FF00000E000BF208850B92389A2886188284654
:10300000FFF7ABFFE1882846FFF79EFF25E0208809
:1030100004280AD12389A28861882846FFF753FF34
:10302000E1882846FFF742FF17E0208808280AD1E8
:103030002389A28861882846FFF7FBFEE18828469D
:10304000FFF7EEFE09E02389A28861882846FFF792
:10305000A6FEE1882846FFF795FE70BD2DE9F041F8
:1030600005460C4600260127608808B9022600E0C4
:103070000026A088012801D1022700E0012720882E
:10308000A0B92389A28861882846FFF766FFE188F6
:103090002846FFF759FF23893A4631462846FFF76D
:1030A00012FFE1882846FFF701FF13E02389A28879
:1030B00061882846FFF707FFE1882846FFF7F6FEFC
:1030C00023893A4631462846FFF747FFE1882846DC
:1030D000FFF73AFFBDE8F0810A884B881A438B88D6
:1030E0001A43CB881A430B891A434B891A438B899D
:1030F0001A43A0F8442070474FF6FF7181800021E9
:103100000180C180418001727047002101804180AF
:103110008180C180018141818181C181704700210D
:1031200001804180012181800021C180018170479F
:103130000021018041808180C180018141818181A4
:1031400070470000002C01400034014000040040A2
:1031500000080040000C004021B1028842F001024A
:10316000028004E002884FF6FE731A400280704726
:1031700031B1B0F8442042F40042A0F8442005E008
:10318000B0F84420C2F30E02A0F8442070471AB1F0
:1031900083890B43838102E083898B43838170475A
:1031A0008182704741EA0203A0F8483070471AB1A3
:1031B00083890B43838102E083898B43838170473A
:1031C00001894FF6F8721140018170470A460021CB
:1031D00001894FF68F73194011430181704730B553
:1031E00004460D4629462046FFF7F0FF208940F0AF
:1031F0000700208130BD2DE9F04104460D461646FA
:103200001F46602D06D13B46012231462046FFF77E
:103210005AFE05E03B46012231462046FFF79DFE5F
:1032200029462046FFF7D2FF208940F00700208181
:10323000BDE8F08130B50C4600210189C9B24FF6D6
:10324000FF7505EA0325154325432943018130BD58
:103250002DE9F04105460E461746984600244346A0
:103260003A4631462846FFF7E5FF2C894FF6F870BD
:10327000044044F007044FF68F70044044F070049B
:103280002C81BDE8F081F0B504460D4616461F4678
:103290003B46324629462046FFF7CCFF208940F4C2
:1032A00080402081F0BD0185828270470A4600215E
:1032B00001884FF68F731940114301807047F0B5B4
:1032C0000C4615461E460021002200230189028B70
:1032D000038C4FF6F877394021434FF6FC473A40CC
:1032E00040F201173A434FF6DD773B404FF6FF7748
:1032F00007EA06172F433B43018102830384F0BD95
:103300000A460021018B4FF68F7319401143018348
:1033100070470A460021018B48F6FF7319404FF6AB
:10332000FF7303EA02231943018370470A46002111
:10333000818B4FF68F7319401143818370470A4682
:103340000021818B48F6FF7319404FF6FF7303EAA3
:10335000022319438183704721B1028842F0800221
:10336000028004E002884FF67F731A4002807047A3
:1033700021B1828842F00402828004E082884FF604
:10338000FB731A408280704721B1828842F00802A4
:10339000828004E082884FF6F7731A40828070477B
:1033A00021B1828842F00102828004E082884FF6D7
:1033B000FE731A40828070470A460021018B4FF647
:1033C000F77319401143018370470A460021018BAE
:1033D0004FF2FF7319404FF6FF7303EA02231943BC
:1033E000018370470A460021818B4FF6F77319401D
:1033F0001143818370470A460021818B4FF2FF738E
:1034000019404FF6FF7303EA022319438183704783
:103410000A460021018B4FF6FB73194011430183CB
:1034200070470A460021018B4FF6FF3319404FF6D3
:10343000FF7303EA02231943018370470A46002100
:10344000818B4FF6FB7319401143818370470A4605
:103450000021818B4FF6FF3319404FF6FF7303EACB
:1034600002231943818370470A460021018B4FF6DE
:103470007F7319401143018370470A460021018B75
:10348000C1F30E014FF6FF7303EA022319430183D0
:1034900070470A460021818B4FF67F731940114314
:1034A000818370470A460021818BC1F30E014FF6DC
:1034B000FF7303EA02231943818370470A46002100
:1034C000018C4FF6FD7319401143018470470A4681
:1034D0000021018C4FF6F7731940114301847047A6
:1034E0000A460021018C4FF6DF7319404FF6FF7337
:1034F00003EA02131943018470470A460021018C34
:103500004FF67F7319404FF6FF7303EA0213194316
:10351000018470470A460021018C4FF6FF53194081
:103520004FF6FF7303EA02231943018470470A46EA
:103530000021018C4FF2FF7319404FF6FF7303EA2D
:1035400002231943018470470A460021018C4DF67D
:10355000FF7319404FF6FF7303EA023319430184E6
:10356000704730B5002301248C40A3B2048C9C43E7
:103570000484048C02FA01F5ADB22C43048430BDFE
:1035800030B5002304248C40A3B2048C9C430484F3
:10359000048C02FA01F5ADB22C43048430BD70B541
:1035A0000346002000241846183001258D40ACB297
:1035B0001D8CA5431D8409B1082909D100EB6100C8
:1035C000056825F0700505600568154305600EE087
:1035D0000D1FC5F34E052844056825F4E045056038
:1035E00005684FF6FF7606EA02263543056070BD92
:1035F00021B1028842F00202028004E002884FF604
:10360000FD731A400280704721B1028842F0040223
:10361000028004E002884FF6FB731A400280704774
:1036200021B1828842F08002828004E082884FF6D5
:103630007F731A408280704702884FF6F7731A40F2
:10364000028002880A430280704782884FF68F7397
:103650001A40828082880A438280704702894FF62E
:10366000F8731A40028102890A4302817047028975
:103670004FF67F731A40028102890A430281704724
:1036800081847047818570478186704701877047C4
:1036900081877047A0F84010704702884FF6FF43BB
:1036A0001A40028002880A43028070470146888ED1
:1036B00070470146088F70470146888F7047014662
:1036C000B1F8400070470146888C70470146088D6C
:1036D000704702460020138A0B400BB1012000E026
:1036E00000207047CA430282704730B5024600206E
:1036F00000230024158A05EA0103958905EA0104DF
:1037000013B10CB1012000E0002030BDCA43028299
:1037100070470000002044490860091D0860091D29
:103720000860091D086041483F491431086070472E
:1037300000213D498279002A3AD00A46126803687E
:103740009A430B461A600A1D126803689A430B1DC0
:103750001A60027911440A6803681A430A60324AFF
:103760000832126803689A432F4B08331A601A1DF7
:10377000126803689A432C4B0C331A604279102A62
:103780000ED11A1F126803681A43274B08331A60B8
:103790001A1D126803681A43234B0C331A600DE09C
:1037A0002149427911440A6803681A430A6005E016
:1037B000027911440A6803689A430A60704700213D
:1037C000016001710C21417100218171704716491E
:1037D000103109680143144A1032116070470146E4
:1037E0000020114A143212680A400AB1012000E098
:1037F000002070470C4914310860704701460020D2
:103800000022094B1B6803EA0102074B14331B68B3
:103810000B4013B10AB1012000E0002070470249BB
:10382000143108607047000000040140FFFF0F00E2
:10383000704700000FB4044910B503AA029800F0C5
:10384000A5FB10BC5DF814FB640700200FB41CB589
:10385000074B06AA7B4469460090059800F067FB79
:103860000020694600F076FB1CBC5DF814FB0000EC
:10387000FD06000070B50C460546012A05D02878E3
:10388000800600D5EA69002302E0012305E05B1C05
:10389000934202D2E05C0028F9D1A869E618C01A68
:1038A000A861286A184428622846AFF3008004E023
:1038B000D5E9012114F8010B9047B442F8D328460A
:1038C000AFF3008070BD00002DE9F04106460024F2
:1038D00010687529314616A510D0AFF30080002876
:1038E00002DA404213A507E031688A0701D512A524
:1038F00002E0490704D511A5012401E0AFF30080DF
:1039000000210A2206F1240709E0B0FBF2FCB0FB1B
:10391000F2F302FB1C00303078541846491C002892
:10392000F3D123462A463046BDE8F04100F093B873
:10393000000000002D0000002B000000200000000F
:103940002DE9F0474FF0000A89460446C0F820A050
:103950002046E1688847002876D0252806D0D4E99B
:1039600001219047206A401C2062F1E7E16820466F
:1039700000258847C4F81CA006460027C4F818A0F4
:103980002A2E09D0304601F04EF838B304EB8708F0
:10399000303EC8F8186019E059F8041B204604EBC3
:1039A00087029161E1688847012F064618D1E069D6
:1039B000002820DA25F020051DE0D8F8180000EBDB
:1039C000800006EB40003038C8F818002046E16857
:1039D0008847064601F027F80028EED1012F0AD0CB
:1039E0002E2E08D12046E16888477F1C0646022F0C
:1039F00045F02005C4DBA069002803DA404245F009
:103A00000105A061E80701D025F01005B6B1A6F1C7
:103A10004100192802D8203645F400654A4631464F
:103A2000204625604D46FCF7DDFB58B1012806D045
:103A3000ED1D25F0070000F1080989E704E005F114
:103A4000040985E730468AE7206ABDE8F0877047B9
:103A50007047704770472DE9F0470D4699469246EA
:103A6000044600F124080168880604D5E06921F0C5
:103A70001001216000E00120A84201DD471B00E0A9
:103A80000027A1697A1902EB0900081AA0612078C1
:103A9000C00602D42046AFF30080002608E0D4E937
:103AA00001211AF806009047206A401C761C20620B
:103AB0004E45F4DB2078C0060AD52046AFF30080DF
:103AC00006E0D4E9012130209047206A401C2062A2
:103AD000381EA7F10107F4DC07E0D4E9012118F84A
:103AE00005009047206A401C2062281EA5F10105B0
:103AF000F3DC2046AFF300802078000602D50220D8
:103B0000BDE8F0870120FBE770472DE9FF4F0C4629
:103B10001E464FF0FF378BB0D2E90001DDF8608020
:103B20000A908A46C1F30A5505B93D460021084668
:103B30004FF00000BAF1000F00F4400005DA00EB8E
:103B400080004FF4400101EA50004FEA9059B9F16A
:103B5000010F00DDB9460A9850EA4A000ED044F63B
:103B60001050A5F2FF3545432F14B8F1000F1ED0B9
:103B70007542291E1EDDC9F100021CE0B8F1010FDB
:103B80004FF0000001D0302103E0F24305E0215462
:103B9000401CB042FBDB30460022002121540B992F
:103BA000C1F80880C1E900200FB0BDE8F08FBD1B4F
:103BB0006D1CDEE74A4600DA694206A800F082FA88
:103BC00006AB93E8070003AB83E8070050460A9969
:103BD00000F05AFB8DE80700A0F500501F38009058
:103BE0000398002D09DD42F21F014A46084403A94B
:103BF0000390684600F0B9FD08E0A0F500504A4681
:103C00001F3803A90390684600F0C3FD8DE8070044
:103C10000004000C03D04FF0FF30410800E01046D4
:103C2000B8F1000F03D00022009215461EE0751E69
:103C300005D400F0C1F9303262556D1EF9D5B34696
:103C40000122084302D000227F1C04E020783028A3
:103C500001D100227F1E002A099786D01DE0112D78
:103C600007DA00F0A9F9303262556D1C50EA010202
:103C7000F5D1084302D00098C8B10EE00021681EBB
:103C800005E0235C625C63542254401E491C81425F
:103C9000F7DBAB46A81B401E0990002004F80B0080
:103CA0000B98099AC0F80880C0E9002B7CE7112620
:103CB0004FF0000859E72DE9F04F88460446D21D21
:103CC00022F0070191B0D1E90001CDE90A0100F02D
:103CD00096FE02460B98C00F01D02D2007E0206809
:103CE000810701D52B2002E0202101EAC000032A30
:103CF000099001D0072A05DB03464146204600F023
:103D0000A1F90BE12078800601D5E06900E00620EA
:103D1000B8F1650F814606D0B8F1660F18D0B8F13A
:103D2000670F70D131E00020B9F1110F009001DB75
:103D3000112301E009F101030AAA01A90CA8FFF768
:103D4000E4FEDDE90C70002609F10105834647E039
:103D500001204B4600904FF000470AAA01A90CA889
:103D6000FFF7D3FEDDE90DB00C995D46002610B9D2
:103D700009F101000D18B9EB050003D4C0F1FF36BD
:103D800009F10105A5EB09002BE0B9F1010F01DAFA
:103D90004FF001090020B9F1110F0090484601DDF4
:103DA000112300E003460AAA01A90CA8FFF7ADFE03
:103DB000DDE90C704D4600268346207800070AD4C2
:103DC000AB4500DA5D4601A8012D04DD411911F86B
:103DD000011C302907D04F4502DA17F1040F04DA2D
:103DE000012082460FE06D1EEEE7002F02DCED1B86
:103DF0003E4403E0781CA84200DD7D1CB81B00F1A6
:103E0000010A4FF000472078000703D4AA4501DBE0
:103E10004FF0FF3A0021B7F1004F0DF143088DF844
:103E2000431024D002202B23002F01DA7F422D23C0
:103E30000A21021EA0F1010000DC5FB197FBF1FC3A
:103E400097FBF1F201FB1C7C17460CF1300C08F8D3
:103E500001CDEEE7A8F1010003702188090501D525
:103E6000452100E06521A0F1010800F8011C099836
:103E70000FA9A1EB0807FF1D00B10120411901EBBB
:103E8000EA70A1693844081A401EA0612078C00673
:103E900002D42046AFF30080099828B1D4E901216B
:103EA0009047206A401C20622078C00622D5204618
:103EB000AFF300801EE0002E04DBB34502DD01A855
:103EC000805D00E03020D4E901219047206A401C49
:103ED0002062761CAAF101005FEA000A0AD100F014
:103EE00067F8C0680168405CD4E901219047206A06
:103EF000401C2062281EA5F10105DCDC07E0D4E9A6
:103F0000012118F8010B9047206A401C2062381EDE
:103F1000A7F10107F3DC2046AFF30080032011B0C6
:103F200043E6000001694A1C02610878704700B549
:103F30008FB0CDE901310021059105497944CDE9E2
:103F4000031011466846FFF7FBFC0FB000BD0000F0
:103F5000E5FFFFFF0A6802F8010B0A60704710B521
:103F6000436913B1AFF3008001E0FFF783FC012048
:103F700010BD127800F124010A7000224A7001225B
:103F8000EDE711684FF0FF32E9E70000074B70B52D
:103F90000D467B44FFF7CBFF0446284600F000F9AE
:103FA00010B14FF0FF3070BD204670BD35DCFFFF13
:103FB000004870472408002030B5B0F10A024FEAEB
:103FC000900E71F100034EEA817EB0EB0E0061EBC2
:103FD00091014FEA101E4EEA017E10EB0E0041EBFC
:103FE00011114FEA102E4EEA016E10EB0E0041EB5C
:103FF00011214FEA104E4EEA014E10EB0E0041EB3C
:104000001141401841F100014FEAD00040EA4170EF
:104010004FEAD10110EB80054FEA810444EA907425
:1040200044EB01046D1944EB0404521BA3414FF00F
:10403000000348BF0A3200D530BD401C41F10001E9
:1040400030BD00002DE9F0411F46044603260168FB
:10405000072A01F4006004DB08B116A505E016A5E7
:1040600003E008B115A500E015A521F010002060BF
:10407000A069C01EA0610FB1401EA0612046AFF331
:1040800000804FB1D4E9012138469047206A401C96
:104090002062C01C206206E0206AFAE7D4E9012110
:1040A00015F8010B9047761EF8D22046AFF300803A
:1040B000BDE8F0814E414E006E616E00494E4600F3
:1040C000696E66002DE9F047814616468AB033488E
:1040D00078440DC88DE80D0030487844801C03AC4E
:1040E0000DC884E80D0041F69B300844372190FB51
:1040F000F1F290FBF1F5A5F1800501FB12041B3CE8
:1041000002D56442012000E00020DFF890A0804644
:104110000027FA44AAF1BE0A0DE0E00709D03246B2
:10412000684607EB47010AEB810100F032FB8DE89E
:10413000070064107F1C002CEFD1184F7F44AC3F68
:1041400018E0E80714D007EB04100DF1180A90E806
:104150000E008AE80E00C068F04201D1981908905C
:10416000324606A903A800F014FB03AB83E807005E
:104170006D10641C002DE4D132466946B8F1000F81
:1041800003A802D000F0F1FA01E000F002FBC9E957
:104190000001C9F808200AB0BDE8F087EC1B000058
:1041A000007B00F080007047004870470408002042
:1041B0007546FFF7F9FFAE4605006946534620F005
:1041C0000700854618B020B5FDF792FDBDE82040F8
:1041D0004FF000064FF000074FF000084FF0000BC3
:1041E00021F00701AC46ACE8C009ACE8C009ACE876
:1041F000C009ACE8C0098D4670470446AFF30080A3
:104200002046FCF70FF800004FF0013C50F8042B5B
:1042100051F8043B9A4221D1A2EB0C03934313EAD9
:10422000CC1317D150F8042B51F8043B9A4215D106
:10423000A2EB0C03934313EACC130BD150F8042BDD
:1042400051F8043B9A4209D1A2EB0C03934313EAC1
:10425000CC13DBD04FF00000704700BFD01A01BA7A
:10426000B1FA81F101F0180122FA01F0CB40C1F15D
:104270002001DBB2C0B2C01A2CFA01F3D11A91436B
:1042800011EAC311E6D170475FEA400C08BF91F014
:10429000000F4FEA8C234FEAC12243EA51514FEA03
:1042A0001C5018BF00F5F0404FEA300018BF41F035
:1042B00000415FEA6C5C00F02980BCF1FF3F08BF61
:1042C00040F080407047130C06BF12044FF0100CF2
:1042D0004FF0000C130E04BF12020CF1080C130F68
:1042E00004BF12010CF1040C930F04BF92000CF1F7
:1042F000020CD30F04BF52000CF1010C11464FF019
:104300000002A0F11F00A0EB0C00704711F0004F5D
:1043100008BF704731F000413FF4D5AF0B0C06BF2A
:1043200009044FF0100C4FF0000C0B0E04BF0902F3
:104330000CF1080C0B0F04BF09010CF1040C8B0FDE
:1043400004BF89000CF1020CCB0F04BF49000CF133
:10435000010CCCF12003A0EB0C0022FA03F302FACB
:104360000CF241EA030100F10100704720F07F4C9C
:1043700080EA030023F07F47ACEB070303F57C538F
:1043800000F0004003F1FF032DE980494FEA154B8F
:1043900009B44FEA144325EA0B4E24EA03480FF20E
:1043A000042606EB132749083E785FEA320203FB36
:1043B0000667C7F5000707FB06F64FEA54374FEAD2
:1043C000D64606F1020607FB066CCCF1005C4FEA0C
:1043D0001C472CEA074C07FB06F40CFB06F504EB24
:1043E00015464FEA961634BF00204FF000404FEAC2
:1043F000D13706FB07FC4FEA1C4C0CFB0BF7D21B1A
:1044000003FB0CF761EB07010CFB0EF7B0EB074069
:1044100072EB17420CFB08F734BFA2EB0742B2EB7A
:10442000074261EB17414FEA0C444FEA910706FB44
:1044300007FC4FEA1C4C0CFB0BF7B0EBC74072EBD0
:10444000573203FB0CF734BFA2EBC742B2EBC742B3
:1044500061EB57310CFB0EF7B0EBC70072EB5772F4
:104460000CFB08F734BFA2EBC702B2EBC70261EB4B
:104470005771039F4FEA816141EA921104EBCC042A
:104480004FEAD1374FEA826206FB07FC42EA9012FC
:104490004FEA80604FEA1C4C0CFB0BF7D21B03FB6E
:1044A0000CF761EB07010CFB0EF7B0EB074072EB6A
:1044B00017420CFB08F734BFA2EB0742B2EB0742EE
:1044C00061EB17414FEA8C554FEA910704EB9C24AE
:1044D00006FB07FC4FEA1C4C0CFB0BF7B0EBC7408C
:1044E00072EB573203FB0CF734BFA2EBC742B2EBBF
:1044F000C74261EB57310CFB0EF7B0EBC70072EB14
:1045000057720CFB08F734BFA2EBC702B2EBC7022D
:1045100061EB577115EB4C254FEA816141EA92112D
:104520004FEA82624FEAD13742EA901206FB07FC5B
:1045300044F100044FEA80604FEA1C4C0CFB0BF77F
:10454000D21B03FB0CF761EB07010CFB0EF7B0EB82
:10455000074072EB17420CFB08F734BFA2EB07428F
:10456000B2EB074261EB174115EB1C154FEA8131A5
:1045700041EA92414FEA823242EA90424FEA803069
:104580004FEA0C7644F1000448EA03434EEA0B4834
:104590004FF0000EB2EB080C71EB030724BF62462C
:1045A00039464EEB0E0E4FF0000B001852414941B8
:1045B0004BEB0B0BB2EB080C71EB03077BF1000B21
:1045C00024BF624639464EEB0E0E4FF0000B00182A
:1045D000524149414BEB0B0BB2EB080C71EB03075B
:1045E0007BF1000B24BF624639464EEB0E0E51EABA
:1045F000020718BF46F0010616EB0E7655F10002D1
:1046000054F1000103D5BDE88901BDE80088BDE88B
:104610008901BDE80048B619524141EB0101A3F1FF
:104620000103704780807F7E7D7C7B7A7978777606
:1046300076757473727171706F6E6E6D6C6C6B6A7F
:104640006A6968686766666564646363626161601D
:10465000605F5F5E5E5D5D5C5C5B5B5A5A5959589A
:104660005857575656555555545453535252525104
:10467000515050504F4F4F4E4E4D4D4D4C4C4C4B5A
:104680004B4B4A4A4A4949494848484747474746A1
:1046900046464545454444444443434343424242DD
:1046A00042414141002B26D4770021D01CB54FEA6E
:1046B000370703B44FF010004FF010014FF0000027
:1046C0000FBCBDE810400BF1010BBBF1010F08BF9F
:1046D0005FEA170722BF12F1010211F101014FF049
:1046E000004143F1000300F0004043EA000070473E
:1046F000F9D35708DAE746EA064613F1400F4FEAC6
:1047000016461FDD13F1200FDFBF16430A460021B6
:1047100020335B42C8D0C3F1200746EA064602FABE
:1047200007F74FEA164646EA0706C3F1200722FAC2
:1047300003F201FA07F721FA03F14FF0000342EA0E
:104740000702B1E746EA020646EA06464FEA16467F
:1047500046EA0106BCBF46EA0646360C4FF00003A7
:104760004FF000024FF000019EE72DE9C04893464C
:1047700030B491E8380007C831EA400C48BF34EA49
:10478000430C03D5FFF7F2FDFFF78CFFF0BCBDE84B
:1047900000882DE9C048934630B491E8380007C836
:1047A00010F0804F08BF13F0804F03D100F005F8E0
:1047B000FFF778FFF0BCBDE8008820F07F4780EA73
:1047C000030023F07F4C07EB0C03A3F57C5300F0B0
:1047D0000040A3F1FE0392F0000F00F0B38095F0CB
:1047E000000F00F077802DE901494FEA11404FEAB0
:1047F000144621EA004800FB06FC24EA064708FBB1
:1048000006F607FB08F800FB07F718EB06484CEB29
:10481000164C4FEA124B18EB07484FEA15464CEB83
:10482000174022EA0B4E0BFB06FC25EA06470EFB5F
:1048300006F607FB0EFE0BFB07F71EEB064E4CEBD6
:10484000164C4FF000061EEB074E4CEB174B18EBC7
:104850000B0840F1000018EB0E0B58EB000840F17C
:1048600000008F1A4FF000013CBFC943661B14BF04
:10487000B5EB040C00213CBFC943F61B4FEA1744BB
:104880004EEA8E0E27EA04454FEA1C4704FB0762F6
:104890002CEA074C05FB07F70CFB05F604FB0CFCA8
:1048A00016EB074642EB174216EB0C4642EB1C4256
:1048B0001BEB060658EB0202414146EA9E0601D573
:1048C000BDE80189B619524141EB0101A3F1010391
:1048D000BDE801894FEA14454FEA114724EA05462D
:1048E00021EA074C05FB07F406FB07F70CFB06F172
:1048F00005FB0CFC11EB074144EB17444FEA124750
:1049000011EB0C4144EB1C4422EA074C05FB07F277
:1049100006FB07F70CFB06F605FB0CFC16EB07463F
:1049200042EB174216EB0C4642EB1C456A1854F159
:10493000000148BF7047B619524141EB0101A3F194
:104940000103704795F0000F37D04FEA11424FEA4C
:10495000144721EA024624EA074C02FB07F106FB52
:1049600007F70CFB06F402FB0CFC14EB074441EBCD
:1049700017414FEA154714EB0C4441EB1C4125EA63
:10498000074C02FB07F506FB07F70CFB06F602FBDC
:104990000CFC16EB074645EB174516EB0C4645EBB2
:1049A0001C42121951F1000148BF7047B61952411B
:1049B00041EB0101A3F1010370474FEA14454FEAAF
:1049C000114724EA054621EA074C05FB07F106FBDF
:1049D00007F70CFB06F24FF0000605FB0CFC12EB90
:1049E000074241EB174112EB0C4251EB1C4148BF0F
:1049F0007047921841EB0101A3F101037047490090
:104A000050EAC12018BF04204A0D18BF40F0010031
:104A100040F2FF72B2EB515F08BF40F00200012884
:104A200008BF0520704730380A2801D2012070479E
:104A30000020704710B500290AD00878002807D058
:104A400005487844FFF7E0FB002801D0002010BDA6
:104A50000248784410BD00007A1300007213000071
:104A600021F00042A2F16052B2F5801F01F0004334
:104A700028BFD2F17F6C0BD95FEA001C43EAC20267
:104A800042EB507018BF704728BF20F001007047FC
:104A9000B2F5801FBCBF184670474FEA410C1CF5A9
:104AA000001F02D2084600F013BC70B500F094FA63
:104AB00000000089FFF7F6BF4FF00040A0F580002E
:104AC000704700002DE9C04130B4DFF8A0C23CEAD5
:104AD000111418BF3CEA131400F0EC8081EA0305BE
:104AE0001CEA111444EAD57418BF1CEA131500F02F
:104AF000C780A4EB05044FF0004545EAC12145EA13
:104B0000C32341EA505143EA525304F17F7499425E
:104B100004F500344FEAC0204FEAC22208BF904299
:104B200000F09C804FEA13650FF24016765D4FEA65
:104B3000134506FB05F7C7F1807706FB07F74FEA39
:104B4000D737A7FB03687642C8F58038A7FB06CEA7
:104B500038BFA8F1010807FB08E64FF0000EA6FBDE
:104B6000028CE6FB03CEDCF1000CCEF1004E38BF28
:104B7000AEF1010EA6FB0C584FF000074FF00005F8
:104B8000E6FB0E87A1FB08C6A0FB07CE16EB0E06C0
:104B900045F10005E1FB076515F1E04E7EBFA4F588
:104BA00080345FEA46066D4116F1800745F1000545
:104BB0004FEA17274FEA066647EA0567A6F1DE4681
:104BC000B6F1805F4FEA15251FD9384624F0010C55
:104BD00005EBC471BCF1FE6F01EB0C1102D8F0BC07
:104BE000BDE8008124425CBF01F5801E9EEAC47FBF
:104BF00002D4F0BCBDE80081244238D4F0BCA1F15D
:104C0000C041BDE8004100F035BA4FEAD22242EA85
:104C100043524FEAD323A7FB02864FEAD02040EA53
:104C2000415007FB03661EEA0E0F4FEAD12105FB38
:104C3000026658BFA6EB0056B6EB00564FEA520E7E
:104C40004EEAC37E18EB0E0E56EB530EBDD518EB95
:104C500002085E417F1C55F10005B6E74FF4801550
:104C60004FF000074FF000064FF00008ADE7F0BC32
:104C70004FF0000001F1C04101F00041BDE80081AA
:104C800011EA0C1F0CEA131500D00CE013EA0C1FFC
:104C900000F025804FF00000F0BC81EA030101F034
:104CA0000041BDE80081F0BCBDE8004181EA03019C
:104CB00000F0E0B9F0BCBDE8004170B500F08CF93F
:104CC000097EFC3E00F007B881EA03014FF00000C6
:104CD00001F00041704781EA030100F0CBB9F0BC5C
:104CE000BDE800414FF0000021497047FFFDFBF98E
:104CF000F7F5F4F2F0EEEDEBE9E8E6E4E3E1E0DE0F
:104D0000DDDBDAD8D7D5D4D3D1D0CFCDCCCBCAC880
:104D1000C7C6C5C4C2C1C0BFBEBDBCBBBAB9B8B7A7
:104D2000B6B5B4B3B2B1B0AFAEADACABAAA9A8A89A
:104D3000A7A6A5A4A3A3A2A1A09F9F9E9D9C9C9B68
:104D40009A99999897979695959493939291919013
:104D50008F8F8E8E8D8C8C8B8B8A898988888787A4
:104D60008685858484838382828181800000FF0719
:104D70000000F87F4FEA41034FEA5353A3F58063E5
:104D8000D3F11E03C8BFD3F1210C0CDD4FF000425C
:104D900042EAC12242EA505232FA03FC8CEAE17C38
:104DA000ACEBE1707047102BC4BF0020704703F5D7
:104DB000787CBCF1FF3F04D06FF0004282EA210012
:104DC000704770B500F008F94992248000207047C0
:104DD000F2E700004FEA1153A3F58063D3F11E03FD
:104DE000A8BFD3F1200C08DB4FF0004242EAC122F9
:104DF00052EA505232FA03F0704709420BD4102B9A
:104E0000C4BF0020704703F5787CBCF1FF3F05D09C
:104E10004FF0FF3070474FF00000704770B500F062
:104E2000DBF800BF4992248000207047F0E710F0C3
:104E3000004248BF4042B0FA80F310FA03F10AD0B2
:104E4000C3F11D0303F580634FEA415002EB0352A7
:104E500002EBD12170474FF000007047B0FA80F3A9
:104E600010FA03F10AD0C3F11D0303F580634FEA82
:104E700041504FEA035202EBD12170474FF000003E
:104E800070470000DFF848C170B51CEA111E1EBF54
:104E90001CEA13159EEA0C0F95EA0C0F00F06F80C8
:104EA00081EA030423EA4C134EEAD47E21EA4C1132
:104EB00041F4801143F48013AE44A1FB024CA0FBEB
:104EC0000365AEF17F7E361955EB0C05A1FB034C53
:104ED0004CF10003A0FB021C16EB0C06654153F1DC
:104EE0000003094218BF46F0010613F4007F0BD1FE
:104EF0004FEA03314FEA0530340341EA155140EAE5
:104F000016506FF003020AE04FEAC3214FEAC520B2
:104F1000F40241EA555140EA56506FF0020202EBAA
:104F20002E4201EB025585EACE710AD05FEA440CAD
:104F300018BF24F0004450F1000041F1000120EAC4
:104F4000D47040F2FE7C624500D270BDA84214BF0E
:104F50004FF080444FF04044002E08BF0024BEF1C3
:104F6000806FA8BFA1F1C041BDE8704080F282808F
:104F70004FF0000001F1C04101F0004170479EEA8E
:104F80000C0F0CEA131518BF95EA0C0F06D04FF062
:104F9000000081EA030E0EF0004170BD00F01CF825
:104FA0008900013E00F007B800F009B84FEA430C51
:104FB0005FEA5C5C08D081EA030100F05BB84FEA6D
:104FC000410C5FEA5C5CF6D14FF00000014970478C
:104FD0000000FF070000F87F0EF1020E2EF0030E16
:104FE0005EF8046B364205D4012A43EB030515F540
:104FF000001F12D8012841EB010C1CF5001F0CD832
:105000000ED14FEAD17C15F5001F0CEB4C0C0CF1C6
:10501000020C08BF4CEBD37C04E04FF0080C01E01D
:105020004FEAD37C0CEB4C0526FA05F606F0070692
:10503000B6F1040C06D20EEB860CBDE870404CF0C5
:10504000010C6047DFE80CF0090B02024FF0004151
:105050004FF00000A1F5002170BD1946104601284F
:1050600051EB010418BFD4F5001484BF002001F0F7
:10507000004170BD0808A0F500114FEA31017047EA
:1050800043004FEAD30C4FEA3C0C43401FBF40079C
:105090000CF1605113F0FE4F70471CF0006F03D10C
:1050A00000200CF0004170470CF0004343EA5070C0
:1050B00010B540EACC0000F0C5F800BF0000009237
:1050C0004FEA0001FFF7D6BF4FF000414FF000005C
:1050D000A1F500217047000090EA010F48BF81F060
:1050E000004100F13281421A3CBF801A89184FEA10
:1050F000D0524FF07F4C1CEA410FA2EBD15318BFA6
:105100009CEA026F00F03B804FF0004C4CEA00201C
:105110004CEA012121FA03FC10EB0C0C1ED202F127
:10512000FF325FEA1C2040EBC25038BF70471CF0D2
:105130007F0F4FEA400C18BFBCF17F4F38BF70475C
:10514000C3F12003994008BF20F00100BCF17F4F5C
:1051500038BF7047A0F1C04000F0BAB84FEA3C0039
:10516000000A40EBC25028BF1CF0FF0F4FEA400C72
:10517000E6D018BFBCF17F4F38BF7047EAE79CEA22
:10518000026F05D010EA5C0F08BF00F000407047C6
:1051900010B500F057F800BF64FBBE3E401058BF8A
:1051A000C0F14040491058BFC1F140418142EFF386
:1051B00000807047B0FA80F310FA03F2C3F19D0348
:1051C0000AD0D90501EB1220530638BF704700F111
:1051D000010008BF20F001007047000050EA010CF8
:1051E00000F113801CF5000F58BFBCF5000F01D46F
:1051F0008842704707D710F5000F58BF11F5000F10
:1052000015D488427047894270471CF5000F04D5B9
:10521000BCF5000FF7D5814270474FF0807C1CEB46
:10522000400F38BF1CEB410F01D28142704710B5CF
:1052300000F008F8922449004FF000504FF08051E0
:10524000FFF7ACBF0EF1020E2EF0030E5EF8044B1A
:10525000244204D44FEA4102B2F17F4F11D84FEA01
:105260004003B3F17F4F0CD80ED14FEAD07CB2F19E
:105270007F4F0CEB4C0C0CF1020C08BF4CEBD17CBB
:1052800004E04FF0080C01E04FEAD17C0CEB4C033A
:1052900024FA03F404F00704B4F1040C06D20EEB74
:1052A000840CBDE810404CF0010C6047DFE80CF0C6
:1052B000070802024FF00040A0F5800010BD08462C
:1052C000420018BFD2F1807288BF00F0004010BDCC
:1052D000FF2141EAD050C005704751EA000C00F1AF
:1052E00013801CF5000F58BFBCF5000F01D481429C
:1052F000704707D711F5000F58BF10F5000F15D4F0
:1053000081427047894270471CF5000F04D5BCF5F7
:10531000000FF7D5884270474FF0807C1CEB410F9F
:1053200038BF1CEB400F01D28842704780EA010071
:1053300081EA000180EA0100FFF779BF90EA010FDE
:1053400048BF81F000413FF5CEAE421A04D882F04A
:105350000042A0EB020011444FEAD0524FF07F4CC4
:105360001CEA410FA2EBD15318BF9CEA026F4AD04E
:105370004FF0004C4CEA00204CEA012121FA03FCDA
:10538000B0EB0C0C0FD412F0FE0F36D05FEA4C00DD
:105390001DD5001240EBC25038BF70471CF03F0FC4
:1053A00018BF70470BE0A2F101025FEA1C2040EB3E
:1053B000C25038BF70471CF07F0F18BF7047C3F151
:1053C0002003994014BF401E20F001007047800860
:1053D0004FEA122308BF7047B0FA80FCA2EB0C0220
:1053E000CCF1280C60FA0CF093EA122F04BF00EB0A
:1053F000C25070474FEAC3707047130A5FEADC106F
:1054000008BF7047F6E79CEA026F04D010EA5C0F11
:1054100008BF0020704710B5FFF714FF40DFF63ECD
:1054200081F000407047FEF746BC0000000000001D
:105430000000002F000000000700070000147F1488
:105440007F1400242A7F2A12006264081323003686
:105450004955225000000503000000001C224100B5
:10546000000041221C000014083E08140008083EF9
:105470000808000000A060000008080808080000F4
:1054800060600000002010080402003E5149453EC3
:105490000000427F400000426151494600214145E1
:1054A0004B31001814127F10002745454539003C48
:1054B0004A49493000017109050300364949493616
:1054C00000064949291E0000363600000000563605
:1054D00000000008142241000014141414140000E9
:1054E0004122140800020151090600324959513E77
:1054F000007C1211127C007F49494936003E41412F
:105500004122007F4141221C007F49494941007FDF
:1055100009090901003E4149497A007F0808087FCE
:105520000000417F4100002040413F01007F0814FE
:105530002241007F40404040007F020C027F007FFC
:105540000408107F003E4141413E007F09090906E1
:10555000003E4151215E007F091929460046494914
:1055600049310001017F0101003F4040403F001FE1
:105570002040201F003F4038403F00631408146360
:1055800000070870080700615149454300007F414A
:10559000410000552A552A55000041417F00000472
:1055A00002010204004040404040000001020400AB
:1055B000002054545478007F484444380038444410
:1055C000442000384444487F00385454541800089C
:1055D0007E0901020018A4A4A47C007F08040478BA
:1055E0000000447D4000004080847D00007F102842
:1055F00044000000417F4000007C04180478007CD7
:105600000804047800384444443800FC2424241856
:105610000018242418FC007C080404080048545492
:10562000542000043F444020003C4040207C001CAB
:105630002040201C003C4030403C004428102844BE
:10564000001CA0A0A07C004464544C441414141406
:105650001414000000000000000000000000000022
:105660000000000000F800000000000000333000DF
:10567000000000100C06100C0600000000000000E6
:10568000000040C07840C0784000043F04043F045C
:105690000400007088FC08300000001820FF211E64
:1056A0000000F008F000E018000000211C031E219B
:1056B0001E0000F00888700000001E212324192716
:1056C000211010160E000000000000000000000075
:1056D0000000000000E0180402000000000718208D
:1056E000400000020418E0000000004020180700FD
:1056F0000000404080F0804040000202010F0102A3
:105700000200000000F0000000000101011F010183
:105710000100000000000000000080B070000000E8
:105720000000000000000000000000010101010174
:105730000101000000000000000000303000000007
:1057400000000000000080601804006018060100DE
:10575000000000E010080810E000000F10202010EA
:105760000F00001010F8000000000020203F202053
:1057700000000070080808887000003028242221EA
:1057800030000030088888483000001820202011A0
:105790000E000000C02010F8000000070424243F81
:1057A000240000F80888880808000019212020112A
:1057B0000E0000E0108888180000000F1120201152
:1057C0000E0000380808C83808000000003F00003C
:1057D00000000070880808887000001C2221212227
:1057E0001C0000E010080810E00000003122221127
:1057F0000F00000000C0C0000000000000303000BA
:105800000000000000800000000000008060000038
:105810000000000080402010080000010204081071
:105820002000404040404040400004040404040480
:10583000040000081020408000000020100804022E
:105840000100007048080808F00000000030360130
:105850000000C030C828E810E000071827242314EF
:105860000B000000C038E0000000203C23020227AB
:10587000382008F8888888700000203F20202011F8
:105880000E00C03008080808380007182020201033
:10589000080008F808080810E000203F2020201029
:1058A0000F0008F88888E8081000203F20202320F7
:1058B000180008F88888E8081000203F200003003E
:1058C0000000C03008080838000007182020221EF9
:1058D000020008F808000008F808203F2101012113
:1058E0003F20000808F8080800000020203F202082
:1058F000000000000808F8080800C08080807F00D1
:10590000000008F888C028180800203F2001263829
:10591000200008F8080000000000203F2020202080
:10592000300008F8F800F8F80800203F003F003F7A
:10593000200008F830C00008F808203F20000718B1
:105940003F00E01008080810E0000F102020201091
:105950000F0008F808080808F000203F21010101A5
:105960000000E01008080810E0000F182424385048
:105970004F0008F8888888887000203F2000030CBA
:1059800030200070880808083800003820212122C3
:105990001C00180808F8080818000000203F200024
:1059A000000008F808000008F808001F2020202048
:1059B0001F000878880000C83808000007380E016A
:1059C0000000F80800F80008F800033C0700073C56
:1059D0000300081868808068180820302C03032C06
:1059E00030200838C800C83808000000203F2000D8
:1059F000000010080808C838080020382621202098
:105A00001800000000FE020202000000007F40407B
:105A10004000000C30C0000000000000000106380B
:105A2000C00000020202FE000000004040407F0073
:105A30000000000004020202040000000000000058
:105A40000000000000000000000080808080808056
:105A5000808000020204000000000000000000003E
:105A60000000000080808080000000192422222293
:105A70003F2008F8008080000000003F1120201126
:105A80000E000000008080800000000E1120202009
:105A90001100000000808088F800000E1120201006
:105AA0003F200000808080800000001F22222222F0
:105AB0001300008080F0888888180020203F202074
:105AC00000000000808080808000006B949494939C
:105AD000600008F8008080800000203F2100002046
